{
  "_format": "hh-sol-artifact-1",
  "contractName": "BuyMeAChai",
  "sourceName": "contracts/BuyMeAChai.sol",
  "abi": [
    {
      "inputs": [],
      "stateMutability": "nonpayable",
      "type": "constructor"
    },
    {
      "anonymous": false,
      "inputs": [
        {
          "indexed": true,
          "internalType": "address",
          "name": "from",
          "type": "address"
        },
        {
          "indexed": false,
          "internalType": "uint256",
          "name": "timestamp",
          "type": "uint256"
        },
        {
          "indexed": false,
          "internalType": "string",
          "name": "name",
          "type": "string"
        },
        {
          "indexed": false,
          "internalType": "string",
          "name": "message",
          "type": "string"
        }
      ],
      "name": "NewMemo",
      "type": "event"
    },
    {
      "inputs": [
        {
          "internalType": "string",
          "name": "_name",
          "type": "string"
        },
        {
          "internalType": "string",
          "name": "_message",
          "type": "string"
        }
      ],
      "name": "buyChai",
      "outputs": [],
      "stateMutability": "payable",
      "type": "function"
    },
    {
      "inputs": [],
      "name": "getMemos",
      "outputs": [
        {
          "components": [
            {
              "internalType": "address",
              "name": "from",
              "type": "address"
            },
            {
              "internalType": "uint256",
              "name": "timestamp",
              "type": "uint256"
            },
            {
              "internalType": "string",
              "name": "name",
              "type": "string"
            },
            {
              "internalType": "string",
              "name": "message",
              "type": "string"
            }
          ],
          "internalType": "struct BuyMeAChai.Memo[]",
          "name": "",
          "type": "tuple[]"
        }
      ],
      "stateMutability": "view",
      "type": "function"
    },
    {
      "inputs": [],
      "name": "withdrawTips",
      "outputs": [],
      "stateMutability": "nonpayable",
      "type": "function"
    }
  ],
  "bytecode": "0x608060405234801561001057600080fd5b5033600160006101000a81548173ffffffffffffffffffffffffffffffffffffffff021916908373ffffffffffffffffffffffffffffffffffffffff160217905550610a82806100616000396000f3fe6080604052600436106100345760003560e01c80633aaa74b2146100395780636a13d85914610050578063865c51721461006c575b600080fd5b34801561004557600080fd5b5061004e610097565b005b61006a6004803603810190610065919061056f565b6100f9565b005b34801561007857600080fd5b50610081610281565b60405161008e9190610790565b60405180910390f35b600160009054906101000a900473ffffffffffffffffffffffffffffffffffffffff1673ffffffffffffffffffffffffffffffffffffffff166108fc479081150290604051600060405180830381858888f193505050506100f757600080fd5b565b6000341161013c576040517f08c379a0000000000000000000000000000000000000000000000000000000008152600401610133906107b2565b60405180910390fd5b600060405180608001604052803373ffffffffffffffffffffffffffffffffffffffff16815260200142815260200184815260200183815250908060018154018082558091505060019003906000526020600020906004020160009091909190915060008201518160000160006101000a81548173ffffffffffffffffffffffffffffffffffffffff021916908373ffffffffffffffffffffffffffffffffffffffff16021790555060208201518160010155604082015181600201908051906020019061020b929190610464565b506060820151816003019080519060200190610228929190610464565b5050503373ffffffffffffffffffffffffffffffffffffffff167fc56140e05f516509ae28110e0f72e17558a7561630dad2647c3ae87d986e365c428484604051610275939291906107d2565b60405180910390a25050565b60606000805480602002602001604051908101604052809291908181526020016000905b8282101561045b57838290600052602060002090600402016040518060800160405290816000820160009054906101000a900473ffffffffffffffffffffffffffffffffffffffff1673ffffffffffffffffffffffffffffffffffffffff1673ffffffffffffffffffffffffffffffffffffffff1681526020016001820154815260200160028201805461033890610951565b80601f016020809104026020016040519081016040528092919081815260200182805461036490610951565b80156103b15780601f10610386576101008083540402835291602001916103b1565b820191906000526020600020905b81548152906001019060200180831161039457829003601f168201915b505050505081526020016003820180546103ca90610951565b80601f01602080910402602001604051908101604052809291908181526020018280546103f690610951565b80156104435780601f1061041857610100808354040283529160200191610443565b820191906000526020600020905b81548152906001019060200180831161042657829003601f168201915b505050505081525050815260200190600101906102a5565b50505050905090565b82805461047090610951565b90600052602060002090601f01602090048101928261049257600085556104d9565b82601f106104ab57805160ff19168380011785556104d9565b828001600101855582156104d9579182015b828111156104d85782518255916020019190600101906104bd565b5b5090506104e691906104ea565b5090565b5b808211156105035760008160009055506001016104eb565b5090565b600061051a6105158461083c565b610817565b90508281526020810184848401111561053257600080fd5b61053d84828561090f565b509392505050565b600082601f83011261055657600080fd5b8135610566848260208601610507565b91505092915050565b6000806040838503121561058257600080fd5b600083013567ffffffffffffffff81111561059c57600080fd5b6105a885828601610545565b925050602083013567ffffffffffffffff8111156105c557600080fd5b6105d185828601610545565b9150509250929050565b60006105e78383610708565b905092915050565b6105f8816108d3565b82525050565b60006106098261087d565b61061381856108a0565b9350836020820285016106258561086d565b8060005b85811015610661578484038952815161064285826105db565b945061064d83610893565b925060208a01995050600181019050610629565b50829750879550505050505092915050565b600061067e82610888565b61068881856108b1565b935061069881856020860161091e565b6106a181610a12565b840191505092915050565b60006106b782610888565b6106c181856108c2565b93506106d181856020860161091e565b6106da81610a12565b840191505092915050565b60006106f2601c836108c2565b91506106fd82610a23565b602082019050919050565b600060808301600083015161072060008601826105ef565b5060208301516107336020860182610772565b506040830151848203604086015261074b8282610673565b915050606083015184820360608601526107658282610673565b9150508091505092915050565b61077b81610905565b82525050565b61078a81610905565b82525050565b600060208201905081810360008301526107aa81846105fe565b905092915050565b600060208201905081810360008301526107cb816106e5565b9050919050565b60006060820190506107e76000830186610781565b81810360208301526107f981856106ac565b9050818103604083015261080d81846106ac565b9050949350505050565b6000610821610832565b905061082d8282610983565b919050565b6000604051905090565b600067ffffffffffffffff821115610857576108566109e3565b5b61086082610a12565b9050602081019050919050565b6000819050602082019050919050565b600081519050919050565b600081519050919050565b6000602082019050919050565b600082825260208201905092915050565b600082825260208201905092915050565b600082825260208201905092915050565b60006108de826108e5565b9050919050565b600073ffffffffffffffffffffffffffffffffffffffff82169050919050565b6000819050919050565b82818337600083830152505050565b60005b8381101561093c578082015181840152602081019050610921565b8381111561094b576000848401525b50505050565b6000600282049050600182168061096957607f821691505b6020821081141561097d5761097c6109b4565b5b50919050565b61098c82610a12565b810181811067ffffffffffffffff821117156109ab576109aa6109e3565b5b80604052505050565b7f4e487b7100000000000000000000000000000000000000000000000000000000600052602260045260246000fd5b7f4e487b7100000000000000000000000000000000000000000000000000000000600052604160045260246000fd5b6000601f19601f8301169050919050565b7f43616e2774206275792061204368616920776974682030206574682e0000000060008201525056fea2646970667358221220f2dd7c10b799bf18846f299543eb25fadc77f2a4ad3856f66322e09ffe27e70264736f6c63430008040033",
  "linkReferences": {},
  "deployedLinkReferences": {}
}